{
  "contractName": "Court",
  "abi": [
    {
      "inputs": [],
      "payable": false,
      "stateMutability": "nonpayable",
      "type": "constructor"
    },
    {
      "anonymous": false,
      "inputs": [
        {
          "indexed": false,
          "internalType": "uint256",
          "name": "_caseId",
          "type": "uint256"
        }
      ],
      "name": "caseCreated",
      "type": "event"
    },
    {
      "anonymous": false,
      "inputs": [
        {
          "indexed": false,
          "internalType": "uint256",
          "name": "_judgeId",
          "type": "uint256"
        }
      ],
      "name": "judgeRegistered",
      "type": "event"
    },
    {
      "anonymous": false,
      "inputs": [
        {
          "indexed": false,
          "internalType": "uint256",
          "name": "_lawyerId",
          "type": "uint256"
        }
      ],
      "name": "lawyerRegistered",
      "type": "event"
    },
    {
      "constant": true,
      "inputs": [
        {
          "internalType": "uint256",
          "name": "",
          "type": "uint256"
        }
      ],
      "name": "cases",
      "outputs": [
        {
          "internalType": "address",
          "name": "judge",
          "type": "address"
        },
        {
          "internalType": "address",
          "name": "lawyer1",
          "type": "address"
        },
        {
          "internalType": "address",
          "name": "lawyer2",
          "type": "address"
        },
        {
          "internalType": "string",
          "name": "party_1_name",
          "type": "string"
        },
        {
          "internalType": "string",
          "name": "party_2_name",
          "type": "string"
        },
        {
          "internalType": "string",
          "name": "details",
          "type": "string"
        }
      ],
      "payable": false,
      "stateMutability": "view",
      "type": "function"
    },
    {
      "constant": true,
      "inputs": [
        {
          "internalType": "uint256",
          "name": "",
          "type": "uint256"
        }
      ],
      "name": "judges",
      "outputs": [
        {
          "internalType": "string",
          "name": "name",
          "type": "string"
        },
        {
          "internalType": "string",
          "name": "bar_id",
          "type": "string"
        },
        {
          "internalType": "uint256",
          "name": "phone",
          "type": "uint256"
        },
        {
          "internalType": "string",
          "name": "email",
          "type": "string"
        },
        {
          "internalType": "address",
          "name": "addr",
          "type": "address"
        },
        {
          "internalType": "string",
          "name": "pubkey",
          "type": "string"
        }
      ],
      "payable": false,
      "stateMutability": "view",
      "type": "function"
    },
    {
      "constant": true,
      "inputs": [
        {
          "internalType": "uint256",
          "name": "",
          "type": "uint256"
        }
      ],
      "name": "lawyers",
      "outputs": [
        {
          "internalType": "string",
          "name": "name",
          "type": "string"
        },
        {
          "internalType": "string",
          "name": "bar_id",
          "type": "string"
        },
        {
          "internalType": "uint256",
          "name": "phone",
          "type": "uint256"
        },
        {
          "internalType": "string",
          "name": "email",
          "type": "string"
        },
        {
          "internalType": "address",
          "name": "addr",
          "type": "address"
        },
        {
          "internalType": "string",
          "name": "pubkey",
          "type": "string"
        }
      ],
      "payable": false,
      "stateMutability": "view",
      "type": "function"
    },
    {
      "constant": true,
      "inputs": [],
      "name": "owner",
      "outputs": [
        {
          "internalType": "address",
          "name": "",
          "type": "address"
        }
      ],
      "payable": false,
      "stateMutability": "view",
      "type": "function"
    },
    {
      "constant": false,
      "inputs": [
        {
          "internalType": "string",
          "name": "_name",
          "type": "string"
        },
        {
          "internalType": "string",
          "name": "_bar_id",
          "type": "string"
        },
        {
          "internalType": "uint256",
          "name": "_phone",
          "type": "uint256"
        },
        {
          "internalType": "string",
          "name": "_email",
          "type": "string"
        },
        {
          "internalType": "address",
          "name": "_addr",
          "type": "address"
        },
        {
          "internalType": "string",
          "name": "_pubkey",
          "type": "string"
        }
      ],
      "name": "registerLawyer",
      "outputs": [],
      "payable": false,
      "stateMutability": "nonpayable",
      "type": "function"
    },
    {
      "constant": false,
      "inputs": [
        {
          "internalType": "string",
          "name": "_name",
          "type": "string"
        },
        {
          "internalType": "string",
          "name": "_bar_id",
          "type": "string"
        },
        {
          "internalType": "uint256",
          "name": "_phone",
          "type": "uint256"
        },
        {
          "internalType": "string",
          "name": "_email",
          "type": "string"
        },
        {
          "internalType": "address",
          "name": "_addr",
          "type": "address"
        },
        {
          "internalType": "string",
          "name": "_pubkey",
          "type": "string"
        }
      ],
      "name": "registerJudge",
      "outputs": [],
      "payable": false,
      "stateMutability": "nonpayable",
      "type": "function"
    },
    {
      "constant": false,
      "inputs": [
        {
          "internalType": "uint256",
          "name": "_judgeId",
          "type": "uint256"
        },
        {
          "internalType": "uint256",
          "name": "_lawyer1Id",
          "type": "uint256"
        },
        {
          "internalType": "uint256",
          "name": "_lawyer2Id",
          "type": "uint256"
        },
        {
          "internalType": "string",
          "name": "_party_1_name",
          "type": "string"
        },
        {
          "internalType": "string",
          "name": "_party_2_name",
          "type": "string"
        },
        {
          "internalType": "string",
          "name": "_details",
          "type": "string"
        }
      ],
      "name": "newCase",
      "outputs": [],
      "payable": false,
      "stateMutability": "nonpayable",
      "type": "function"
    },
    {
      "constant": false,
      "inputs": [
        {
          "internalType": "uint256",
          "name": "_caseId",
          "type": "uint256"
        },
        {
          "internalType": "string",
          "name": "_fileHash",
          "type": "string"
        },
        {
          "internalType": "string",
          "name": "_fileType",
          "type": "string"
        }
      ],
      "name": "uploadEvidence",
      "outputs": [],
      "payable": false,
      "stateMutability": "nonpayable",
      "type": "function"
    },
    {
      "constant": true,
      "inputs": [
        {
          "internalType": "uint256",
          "name": "_caseId",
          "type": "uint256"
        }
      ],
      "name": "getEvidenceCount",
      "outputs": [
        {
          "internalType": "uint256",
          "name": "",
          "type": "uint256"
        }
      ],
      "payable": false,
      "stateMutability": "view",
      "type": "function"
    },
    {
      "constant": true,
      "inputs": [
        {
          "internalType": "uint256",
          "name": "_caseId",
          "type": "uint256"
        },
        {
          "internalType": "uint256",
          "name": "_evidenceNo",
          "type": "uint256"
        }
      ],
      "name": "getEvidence",
      "outputs": [
        {
          "internalType": "string",
          "name": "FileHash",
          "type": "string"
        },
        {
          "internalType": "string",
          "name": "FileType",
          "type": "string"
        }
      ],
      "payable": false,
      "stateMutability": "view",
      "type": "function"
    },
    {
      "constant": false,
      "inputs": [
        {
          "internalType": "uint256",
          "name": "_caseId",
          "type": "uint256"
        },
        {
          "internalType": "string",
          "name": "_transcript",
          "type": "string"
        }
      ],
      "name": "uploadTranscript",
      "outputs": [],
      "payable": false,
      "stateMutability": "nonpayable",
      "type": "function"
    },
    {
      "constant": true,
      "inputs": [
        {
          "internalType": "uint256",
          "name": "_caseId",
          "type": "uint256"
        }
      ],
      "name": "getTranscriptsCount",
      "outputs": [
        {
          "internalType": "uint256",
          "name": "",
          "type": "uint256"
        }
      ],
      "payable": false,
      "stateMutability": "view",
      "type": "function"
    },
    {
      "constant": true,
      "inputs": [
        {
          "internalType": "uint256",
          "name": "_caseId",
          "type": "uint256"
        },
        {
          "internalType": "uint256",
          "name": "_transcriptNo",
          "type": "uint256"
        }
      ],
      "name": "getTranscript",
      "outputs": [
        {
          "internalType": "string",
          "name": "",
          "type": "string"
        }
      ],
      "payable": false,
      "stateMutability": "view",
      "type": "function"
    },
    {
      "constant": false,
      "inputs": [
        {
          "internalType": "bool",
          "name": "_isLawyer",
          "type": "bool"
        },
        {
          "internalType": "uint256",
          "name": "_ljId",
          "type": "uint256"
        },
        {
          "internalType": "uint256",
          "name": "_caseId",
          "type": "uint256"
        },
        {
          "internalType": "string",
          "name": "_key",
          "type": "string"
        }
      ],
      "name": "addEncryptedKey",
      "outputs": [],
      "payable": false,
      "stateMutability": "nonpayable",
      "type": "function"
    },
    {
      "constant": true,
      "inputs": [
        {
          "internalType": "bool",
          "name": "_isLawyer",
          "type": "bool"
        },
        {
          "internalType": "uint256",
          "name": "_ljId",
          "type": "uint256"
        },
        {
          "internalType": "uint256",
          "name": "_caseId",
          "type": "uint256"
        }
      ],
      "name": "getEncryptedKey",
      "outputs": [
        {
          "internalType": "string",
          "name": "",
          "type": "string"
        }
      ],
      "payable": false,
      "stateMutability": "view",
      "type": "function"
    },
    {
      "constant": true,
      "inputs": [
        {
          "internalType": "uint256",
          "name": "_caseId",
          "type": "uint256"
        }
      ],
      "name": "getCaseAddresses",
      "outputs": [
        {
          "internalType": "address",
          "name": "judge",
          "type": "address"
        },
        {
          "internalType": "address",
          "name": "lawyer1",
          "type": "address"
        },
        {
          "internalType": "address",
          "name": "lawyer2",
          "type": "address"
        }
      ],
      "payable": false,
      "stateMutability": "view",
      "type": "function"
    }
  ],
  "bytecode": "0x608060405234801561001057600080fd5b50336000806101000a81548173ffffffffffffffffffffffffffffffffffffffff021916908373ffffffffffffffffffffffffffffffffffffffff16021790555061307d806100606000396000f3fe608060405234801561001057600080fd5b50600436106101005760003560e01c80639d7a05c611610097578063cc5f456211610066578063cc5f456214610fea578063f09790dd146110af578063f1b8a98c146112c7578063f343d446146113e457610100565b80639d7a05c614610845578063a33bf6d2146108f6578063ace5ddc314610b1b578063b06b036814610dc557610100565b80636b27cc0f116100d35780636b27cc0f146106215780638da5cb5b146106fc5780638fa1f8d414610746578063991d7e5b1461080357610100565b8063324a08eb14610105578063423aee31146103af57806356993cac146103f15780635b2647c6146104c5575b600080fd5b6103ad600480360360c081101561011b57600080fd5b810190808035906020019064010000000081111561013857600080fd5b82018360208201111561014a57600080fd5b8035906020019184600183028401116401000000008311171561016c57600080fd5b91908080601f016020809104026020016040519081016040528093929190818152602001838380828437600081840152601f19601f820116905080830192505050505050509192919290803590602001906401000000008111156101cf57600080fd5b8201836020820111156101e157600080fd5b8035906020019184600183028401116401000000008311171561020357600080fd5b91908080601f016020809104026020016040519081016040528093929190818152602001838380828437600081840152601f19601f820116905080830192505050505050509192919290803590602001909291908035906020019064010000000081111561027057600080fd5b82018360208201111561028257600080fd5b803590602001918460018302840111640100000000831117156102a457600080fd5b91908080601f016020809104026020016040519081016040528093929190818152602001838380828437600081840152601f19601f820116905080830192505050505050509192919290803573ffffffffffffffffffffffffffffffffffffffff1690602001909291908035906020019064010000000081111561032757600080fd5b82018360208201111561033957600080fd5b8035906020019184600183028401116401000000008311171561035b57600080fd5b91908080601f016020809104026020016040519081016040528093929190818152602001838380828437600081840152601f19601f8201169050808301925050505050505091929192905050506115eb565b005b6103db600480360360208110156103c557600080fd5b8101908080359060200190929190505050611776565b6040518082815260200191505060405180910390f35b61041d6004803603602081101561040757600080fd5b81019080803590602001909291905050506117a1565b604051808473ffffffffffffffffffffffffffffffffffffffff1673ffffffffffffffffffffffffffffffffffffffff1681526020018373ffffffffffffffffffffffffffffffffffffffff1673ffffffffffffffffffffffffffffffffffffffff1681526020018273ffffffffffffffffffffffffffffffffffffffff1673ffffffffffffffffffffffffffffffffffffffff168152602001935050505060405180910390f35b61061f600480360360608110156104db57600080fd5b81019080803590602001909291908035906020019064010000000081111561050257600080fd5b82018360208201111561051457600080fd5b8035906020019184600183028401116401000000008311171561053657600080fd5b91908080601f016020809104026020016040519081016040528093929190818152602001838380828437600081840152601f19601f8201169050808301925050505050505091929192908035906020019064010000000081111561059957600080fd5b8201836020820111156105ab57600080fd5b803590602001918460018302840111640100000000831117156105cd57600080fd5b91908080601f016020809104026020016040519081016040528093929190818152602001838380828437600081840152601f19601f820116905080830192505050505050509192919290505050611870565b005b6106fa6004803603608081101561063757600080fd5b8101908080351515906020019092919080359060200190929190803590602001909291908035906020019064010000000081111561067457600080fd5b82018360208201111561068657600080fd5b803590602001918460018302840111640100000000831117156106a857600080fd5b91908080601f016020809104026020016040519081016040528093929190818152602001838380828437600081840152601f19601f8201169050808301925050505050505091929192905050506119d7565b005b610704611aca565b604051808273ffffffffffffffffffffffffffffffffffffffff1673ffffffffffffffffffffffffffffffffffffffff16815260200191505060405180910390f35b6107886004803603606081101561075c57600080fd5b810190808035151590602001909291908035906020019092919080359060200190929190505050611aef565b6040518080602001828103825283818151815260200191508051906020019080838360005b838110156107c85780820151818401526020810190506107ad565b50505050905090810190601f1680156107f55780820380516001836020036101000a031916815260200191505b509250505060405180910390f35b61082f6004803603602081101561081957600080fd5b8101908080359060200190929190505050611c98565b6040518082815260200191505060405180910390f35b61087b6004803603604081101561085b57600080fd5b810190808035906020019092919080359060200190929190505050611cc3565b6040518080602001828103825283818151815260200191508051906020019080838360005b838110156108bb5780820151818401526020810190506108a0565b50505050905090810190601f1680156108e85780820380516001836020036101000a031916815260200191505b509250505060405180910390f35b6109226004803603602081101561090c57600080fd5b8101908080359060200190929190505050611d99565b604051808060200180602001878152602001806020018673ffffffffffffffffffffffffffffffffffffffff1673ffffffffffffffffffffffffffffffffffffffff1681526020018060200185810385528b818151815260200191508051906020019080838360005b838110156109a657808201518184015260208101905061098b565b50505050905090810190601f1680156109d35780820380516001836020036101000a031916815260200191505b5085810384528a818151815260200191508051906020019080838360005b83811015610a0c5780820151818401526020810190506109f1565b50505050905090810190601f168015610a395780820380516001836020036101000a031916815260200191505b50858103835288818151815260200191508051906020019080838360005b83811015610a72578082015181840152602081019050610a57565b50505050905090810190601f168015610a9f5780820380516001836020036101000a031916815260200191505b50858103825286818151815260200191508051906020019080838360005b83811015610ad8578082015181840152602081019050610abd565b50505050905090810190601f168015610b055780820380516001836020036101000a031916815260200191505b509a505050505050505050505060405180910390f35b610dc3600480360360c0811015610b3157600080fd5b8101908080359060200190640100000000811115610b4e57600080fd5b820183602082011115610b6057600080fd5b80359060200191846001830284011164010000000083111715610b8257600080fd5b91908080601f016020809104026020016040519081016040528093929190818152602001838380828437600081840152601f19601f82011690508083019250505050505050919291929080359060200190640100000000811115610be557600080fd5b820183602082011115610bf757600080fd5b80359060200191846001830284011164010000000083111715610c1957600080fd5b91908080601f016020809104026020016040519081016040528093929190818152602001838380828437600081840152601f19601f8201169050808301925050505050505091929192908035906020019092919080359060200190640100000000811115610c8657600080fd5b820183602082011115610c9857600080fd5b80359060200191846001830284011164010000000083111715610cba57600080fd5b91908080601f016020809104026020016040519081016040528093929190818152602001838380828437600081840152601f19601f820116905080830192505050505050509192919290803573ffffffffffffffffffffffffffffffffffffffff16906020019092919080359060200190640100000000811115610d3d57600080fd5b820183602082011115610d4f57600080fd5b80359060200191846001830284011164010000000083111715610d7157600080fd5b91908080601f016020809104026020016040519081016040528093929190818152602001838380828437600081840152601f19601f820116905080830192505050505050509192919290505050612062565b005b610df160048036036020811015610ddb57600080fd5b81019080803590602001909291905050506121ec565b604051808060200180602001878152602001806020018673ffffffffffffffffffffffffffffffffffffffff1673ffffffffffffffffffffffffffffffffffffffff1681526020018060200185810385528b818151815260200191508051906020019080838360005b83811015610e75578082015181840152602081019050610e5a565b50505050905090810190601f168015610ea25780820380516001836020036101000a031916815260200191505b5085810384528a818151815260200191508051906020019080838360005b83811015610edb578082015181840152602081019050610ec0565b50505050905090810190601f168015610f085780820380516001836020036101000a031916815260200191505b50858103835288818151815260200191508051906020019080838360005b83811015610f41578082015181840152602081019050610f26565b50505050905090810190601f168015610f6e5780820380516001836020036101000a031916815260200191505b50858103825286818151815260200191508051906020019080838360005b83811015610fa7578082015181840152602081019050610f8c565b50505050905090810190601f168015610fd45780820380516001836020036101000a031916815260200191505b509a505050505050505050505060405180910390f35b6110ad6004803603604081101561100057600080fd5b81019080803590602001909291908035906020019064010000000081111561102757600080fd5b82018360208201111561103957600080fd5b8035906020019184600183028401116401000000008311171561105b57600080fd5b91908080601f016020809104026020016040519081016040528093929190818152602001838380828437600081840152601f19601f8201169050808301925050505050505091929192905050506124b5565b005b6110db600480360360208110156110c557600080fd5b810190808035906020019092919050505061256d565b604051808773ffffffffffffffffffffffffffffffffffffffff1673ffffffffffffffffffffffffffffffffffffffff1681526020018673ffffffffffffffffffffffffffffffffffffffff1673ffffffffffffffffffffffffffffffffffffffff1681526020018573ffffffffffffffffffffffffffffffffffffffff1673ffffffffffffffffffffffffffffffffffffffff168152602001806020018060200180602001848103845287818151815260200191508051906020019080838360005b838110156111b957808201518184015260208101905061119e565b50505050905090810190601f1680156111e65780820380516001836020036101000a031916815260200191505b50848103835286818151815260200191508051906020019080838360005b8381101561121f578082015181840152602081019050611204565b50505050905090810190601f16801561124c5780820380516001836020036101000a031916815260200191505b50848103825285818151815260200191508051906020019080838360005b8381101561128557808201518184015260208101905061126a565b50505050905090810190601f1680156112b25780820380516001836020036101000a031916815260200191505b50995050505050505050505060405180910390f35b6112fd600480360360408110156112dd57600080fd5b8101908080359060200190929190803590602001909291905050506127de565b604051808060200180602001838103835285818151815260200191508051906020019080838360005b83811015611341578082015181840152602081019050611326565b50505050905090810190601f16801561136e5780820380516001836020036101000a031916815260200191505b50838103825284818151815260200191508051906020019080838360005b838110156113a757808201518184015260208101905061138c565b50505050905090810190601f1680156113d45780820380516001836020036101000a031916815260200191505b5094505050505060405180910390f35b6115e9600480360360c08110156113fa57600080fd5b810190808035906020019092919080359060200190929190803590602001909291908035906020019064010000000081111561143557600080fd5b82018360208201111561144757600080fd5b8035906020019184600183028401116401000000008311171561146957600080fd5b91908080601f016020809104026020016040519081016040528093929190818152602001838380828437600081840152601f19601f820116905080830192505050505050509192919290803590602001906401000000008111156114cc57600080fd5b8201836020820111156114de57600080fd5b8035906020019184600183028401116401000000008311171561150057600080fd5b91908080601f016020809104026020016040519081016040528093929190818152602001838380828437600081840152601f19601f8201169050808301925050505050505091929192908035906020019064010000000081111561156357600080fd5b82018360208201111561157557600080fd5b8035906020019184600183028401116401000000008311171561159757600080fd5b91908080601f016020809104026020016040519081016040528093929190818152602001838380828437600081840152601f19601f82011690508083019250505050505050919291929050505061298a565b005b6115f3612d29565b6040518060c001604052808881526020018781526020018681526020018581526020018473ffffffffffffffffffffffffffffffffffffffff168152602001838152509050600281908060018154018082558091505090600182039060005260206000209060070201600090919290919091506000820151816000019080519060200190611682929190612d75565b50602082015181600101908051906020019061169f929190612d75565b506040820151816002015560608201518160030190805190602001906116c6929190612d75565b5060808201518160040160006101000a81548173ffffffffffffffffffffffffffffffffffffffff021916908373ffffffffffffffffffffffffffffffffffffffff16021790555060a082015181600501908051906020019061172a929190612d75565b505050507f84d938253a09f6f1c18877f03794c04e160d67d7ec43ef4aa6de4dd0db9720dc6001600280549050036040518082815260200191505060405180910390a150505050505050565b60006003828154811061178557fe5b9060005260206000209060090201600301805490509050919050565b6000806000600384815481106117b357fe5b906000526020600020906009020160000160009054906101000a900473ffffffffffffffffffffffffffffffffffffffff16600385815481106117f257fe5b906000526020600020906009020160010160009054906101000a900473ffffffffffffffffffffffffffffffffffffffff166003868154811061183157fe5b906000526020600020906009020160020160009054906101000a900473ffffffffffffffffffffffffffffffffffffffff169250925092509193909250565b6000809054906101000a900473ffffffffffffffffffffffffffffffffffffffff1673ffffffffffffffffffffffffffffffffffffffff163373ffffffffffffffffffffffffffffffffffffffff16146118c957600080fd5b604051806020016040528060008152508051906020012082805190602001201415801561191357506040518060200160405280600081525080519060200120818051906020012014155b61191c57600080fd5b6003838154811061192957fe5b9060005260206000209060090201600301829080600181540180825580915050906001820390600052602060002001600090919290919091509080519060200190611975929190612df5565b50506003838154811061198457fe5b90600052602060002090600902016004018190806001815401808255809150509060018203906000526020600020016000909192909190915090805190602001906119d0929190612df5565b5050505050565b6000809054906101000a900473ffffffffffffffffffffffffffffffffffffffff1673ffffffffffffffffffffffffffffffffffffffff163373ffffffffffffffffffffffffffffffffffffffff1614611a3057600080fd5b8315611a7f578060018481548110611a4457fe5b906000526020600020906007020160060160008481526020019081526020016000209080519060200190611a79929190612df5565b50611ac4565b8060028481548110611a8d57fe5b906000526020600020906007020160060160008481526020019081526020016000209080519060200190611ac2929190612df5565b505b50505050565b6000809054906101000a900473ffffffffffffffffffffffffffffffffffffffff1681565b60608315611bc65760018381548110611b0457fe5b906000526020600020906007020160060160008381526020019081526020016000208054600181600116156101000203166002900480601f016020809104026020016040519081016040528092919081815260200182805460018160011615610100020316600290048015611bba5780601f10611b8f57610100808354040283529160200191611bba565b820191906000526020600020905b815481529060010190602001808311611b9d57829003601f168201915b50505050509050611c91565b60028381548110611bd357fe5b906000526020600020906007020160060160008381526020019081526020016000208054600181600116156101000203166002900480601f016020809104026020016040519081016040528092919081815260200182805460018160011615610100020316600290048015611c895780601f10611c5e57610100808354040283529160200191611c89565b820191906000526020600020905b815481529060010190602001808311611c6c57829003601f168201915b505050505090505b9392505050565b600060038281548110611ca757fe5b9060005260206000209060090201600801805490509050919050565b606060038381548110611cd257fe5b90600052602060002090600902016008018281548110611cee57fe5b906000526020600020018054600181600116156101000203166002900480601f016020809104026020016040519081016040528092919081815260200182805460018160011615610100020316600290048015611d8c5780601f10611d6157610100808354040283529160200191611d8c565b820191906000526020600020905b815481529060010190602001808311611d6f57829003601f168201915b5050505050905092915050565b60018181548110611da657fe5b9060005260206000209060070201600091509050806000018054600181600116156101000203166002900480601f016020809104026020016040519081016040528092919081815260200182805460018160011615610100020316600290048015611e525780601f10611e2757610100808354040283529160200191611e52565b820191906000526020600020905b815481529060010190602001808311611e3557829003601f168201915b505050505090806001018054600181600116156101000203166002900480601f016020809104026020016040519081016040528092919081815260200182805460018160011615610100020316600290048015611ef05780601f10611ec557610100808354040283529160200191611ef0565b820191906000526020600020905b815481529060010190602001808311611ed357829003601f168201915b505050505090806002015490806003018054600181600116156101000203166002900480601f016020809104026020016040519081016040528092919081815260200182805460018160011615610100020316600290048015611f945780601f10611f6957610100808354040283529160200191611f94565b820191906000526020600020905b815481529060010190602001808311611f7757829003601f168201915b5050505050908060040160009054906101000a900473ffffffffffffffffffffffffffffffffffffffff1690806005018054600181600116156101000203166002900480601f0160208091040260200160405190810160405280929190818152602001828054600181600116156101000203166002900480156120585780601f1061202d57610100808354040283529160200191612058565b820191906000526020600020905b81548152906001019060200180831161203b57829003601f168201915b5050505050905086565b61206a612e75565b6040518060c001604052808881526020018781526020018681526020018581526020018473ffffffffffffffffffffffffffffffffffffffff1681526020018381525090506001819080600181540180825580915050906001820390600052602060002090600702016000909192909190915060008201518160000190805190602001906120f9929190612d75565b506020820151816001019080519060200190612116929190612d75565b5060408201518160020155606082015181600301908051906020019061213d929190612d75565b5060808201518160040160006101000a81548173ffffffffffffffffffffffffffffffffffffffff021916908373ffffffffffffffffffffffffffffffffffffffff16021790555060a08201518160050190805190602001906121a1929190612d75565b505050507fd27034f23f8291ab86ab3da722bb1ce4ddfe94c2f69c7e91d98ff4c57b420ede60018080549050036040518082815260200191505060405180910390a150505050505050565b600281815481106121f957fe5b9060005260206000209060070201600091509050806000018054600181600116156101000203166002900480601f0160208091040260200160405190810160405280929190818152602001828054600181600116156101000203166002900480156122a55780601f1061227a576101008083540402835291602001916122a5565b820191906000526020600020905b81548152906001019060200180831161228857829003601f168201915b505050505090806001018054600181600116156101000203166002900480601f0160208091040260200160405190810160405280929190818152602001828054600181600116156101000203166002900480156123435780601f1061231857610100808354040283529160200191612343565b820191906000526020600020905b81548152906001019060200180831161232657829003601f168201915b505050505090806002015490806003018054600181600116156101000203166002900480601f0160208091040260200160405190810160405280929190818152602001828054600181600116156101000203166002900480156123e75780601f106123bc576101008083540402835291602001916123e7565b820191906000526020600020905b8154815290600101906020018083116123ca57829003601f168201915b5050505050908060040160009054906101000a900473ffffffffffffffffffffffffffffffffffffffff1690806005018054600181600116156101000203166002900480601f0160208091040260200160405190810160405280929190818152602001828054600181600116156101000203166002900480156124ab5780601f10612480576101008083540402835291602001916124ab565b820191906000526020600020905b81548152906001019060200180831161248e57829003601f168201915b5050505050905086565b6000809054906101000a900473ffffffffffffffffffffffffffffffffffffffff1673ffffffffffffffffffffffffffffffffffffffff163373ffffffffffffffffffffffffffffffffffffffff161461250e57600080fd5b6003828154811061251b57fe5b9060005260206000209060090201600801819080600181540180825580915050906001820390600052602060002001600090919290919091509080519060200190612567929190612df5565b50505050565b6003818154811061257a57fe5b90600052602060002090600902016000915090508060000160009054906101000a900473ffffffffffffffffffffffffffffffffffffffff16908060010160009054906101000a900473ffffffffffffffffffffffffffffffffffffffff16908060020160009054906101000a900473ffffffffffffffffffffffffffffffffffffffff1690806005018054600181600116156101000203166002900480601f0160208091040260200160405190810160405280929190818152602001828054600181600116156101000203166002900480156126985780601f1061266d57610100808354040283529160200191612698565b820191906000526020600020905b81548152906001019060200180831161267b57829003601f168201915b505050505090806006018054600181600116156101000203166002900480601f0160208091040260200160405190810160405280929190818152602001828054600181600116156101000203166002900480156127365780601f1061270b57610100808354040283529160200191612736565b820191906000526020600020905b81548152906001019060200180831161271957829003601f168201915b505050505090806007018054600181600116156101000203166002900480601f0160208091040260200160405190810160405280929190818152602001828054600181600116156101000203166002900480156127d45780601f106127a9576101008083540402835291602001916127d4565b820191906000526020600020905b8154815290600101906020018083116127b757829003601f168201915b5050505050905086565b606080600384815481106127ee57fe5b9060005260206000209060090201600301838154811061280a57fe5b906000526020600020016003858154811061282157fe5b9060005260206000209060090201600401848154811061283d57fe5b90600052602060002001818054600181600116156101000203166002900480601f0160208091040260200160405190810160405280929190818152602001828054600181600116156101000203166002900480156128dc5780601f106128b1576101008083540402835291602001916128dc565b820191906000526020600020905b8154815290600101906020018083116128bf57829003601f168201915b50505050509150808054600181600116156101000203166002900480601f0160208091040260200160405190810160405280929190818152602001828054600181600116156101000203166002900480156129785780601f1061294d57610100808354040283529160200191612978565b820191906000526020600020905b81548152906001019060200180831161295b57829003601f168201915b50505050509050915091509250929050565b6000809054906101000a900473ffffffffffffffffffffffffffffffffffffffff1673ffffffffffffffffffffffffffffffffffffffff163373ffffffffffffffffffffffffffffffffffffffff16146129e357600080fd5b60606129ed612ec1565b60405180610120016040528060028a81548110612a0657fe5b906000526020600020906007020160040160009054906101000a900473ffffffffffffffffffffffffffffffffffffffff1673ffffffffffffffffffffffffffffffffffffffff16815260200160018981548110612a6057fe5b906000526020600020906007020160040160009054906101000a900473ffffffffffffffffffffffffffffffffffffffff1673ffffffffffffffffffffffffffffffffffffffff16815260200160018881548110612aba57fe5b906000526020600020906007020160040160009054906101000a900473ffffffffffffffffffffffffffffffffffffffff1673ffffffffffffffffffffffffffffffffffffffff1681526020018381526020018381526020018681526020018581526020018481526020018381525090506003819080600181540180825580915050906001820390600052602060002090600902016000909192909190915060008201518160000160006101000a81548173ffffffffffffffffffffffffffffffffffffffff021916908373ffffffffffffffffffffffffffffffffffffffff16021790555060208201518160010160006101000a81548173ffffffffffffffffffffffffffffffffffffffff021916908373ffffffffffffffffffffffffffffffffffffffff16021790555060408201518160020160006101000a81548173ffffffffffffffffffffffffffffffffffffffff021916908373ffffffffffffffffffffffffffffffffffffffff1602179055506060820151816003019080519060200190612c4a929190612f4f565b506080820151816004019080519060200190612c67929190612f4f565b5060a0820151816005019080519060200190612c84929190612d75565b5060c0820151816006019080519060200190612ca1929190612d75565b5060e0820151816007019080519060200190612cbe929190612d75565b50610100820151816008019080519060200190612cdc929190612f4f565b505050507fca0f0263e10a85892496523b99b9450d1d6e40cbce860b150a7bbf062fbd4e406001600380549050036040518082815260200191505060405180910390a15050505050505050565b6040518060c0016040528060608152602001606081526020016000815260200160608152602001600073ffffffffffffffffffffffffffffffffffffffff168152602001606081525090565b828054600181600116156101000203166002900490600052602060002090601f016020900481019282601f10612db657805160ff1916838001178555612de4565b82800160010185558215612de4579182015b82811115612de3578251825591602001919060010190612dc8565b5b509050612df19190612faf565b5090565b828054600181600116156101000203166002900490600052602060002090601f016020900481019282601f10612e3657805160ff1916838001178555612e64565b82800160010185558215612e64579182015b82811115612e63578251825591602001919060010190612e48565b5b509050612e719190612faf565b5090565b6040518060c0016040528060608152602001606081526020016000815260200160608152602001600073ffffffffffffffffffffffffffffffffffffffff168152602001606081525090565b604051806101200160405280600073ffffffffffffffffffffffffffffffffffffffff168152602001600073ffffffffffffffffffffffffffffffffffffffff168152602001600073ffffffffffffffffffffffffffffffffffffffff1681526020016060815260200160608152602001606081526020016060815260200160608152602001606081525090565b828054828255906000526020600020908101928215612f9e579160200282015b82811115612f9d578251829080519060200190612f8d929190612d75565b5091602001919060010190612f6f565b5b509050612fab9190612fd4565b5090565b612fd191905b80821115612fcd576000816000905550600101612fb5565b5090565b90565b612ffd91905b80821115612ff95760008181612ff09190613000565b50600101612fda565b5090565b90565b50805460018160011615610100020316600290046000825580601f106130265750613045565b601f0160209004906000526020600020908101906130449190612faf565b5b5056fea265627a7a72315820537419e86a529fc6d851f926de356a4740d7939e8d69c8d0d1638f1daa129cfc64736f6c63430005100032",
  "source": "pragma solidity ^0.5.0;\r\n\r\ncontract Court {\r\n    address public owner;\r\n    modifier onlyOwner() {\r\n        if (msg.sender != owner) {\r\n            revert();\r\n        } \r\n        _;\r\n    }\r\n    \r\n    struct Lawyer {\r\n        string name;\r\n        string bar_id;\r\n        uint phone;\r\n        string email;\r\n        address addr;\r\n        string pubkey;\r\n        mapping(uint => string) encryptedKeys;     //for each case\r\n    }\r\n    \r\n    struct Judge {\r\n        string name;\r\n        string bar_id;\r\n        uint phone;\r\n        string email;\r\n        address addr;\r\n        string pubkey;\r\n        mapping(uint => string) encryptedKeys;\r\n    }\r\n    \r\n    Lawyer[] public lawyers;\r\n    Judge[] public judges;\r\n    \r\n    struct Case {\r\n        address judge;\r\n        address lawyer1;\r\n        address lawyer2;\r\n        string[] evidenceFileHash;\r\n        string[] evidenceFileType;\r\n        \r\n        string party_1_name;\r\n        string party_2_name;\r\n        string details;\r\n        string[] transcripts;\r\n    }\r\n    \r\n    Case[] public cases;\r\n    \r\n    event lawyerRegistered(uint _lawyerId);\r\n    event judgeRegistered(uint _judgeId);\r\n    event caseCreated(uint _caseId);\r\n    \r\n    function registerLawyer(string memory _name, string memory _bar_id, uint _phone, string memory _email, address _addr, string memory _pubkey) public {\r\n        Lawyer memory l = Lawyer(_name, _bar_id, _phone, _email, _addr, _pubkey);\r\n        lawyers.push(l);\r\n        emit lawyerRegistered(lawyers.length-1);\r\n    }\r\n    function registerJudge(string memory _name, string memory _bar_id, uint _phone, string memory _email, address _addr, string memory _pubkey) public {\r\n        Judge memory j = Judge(_name, _bar_id, _phone, _email, _addr, _pubkey);\r\n        judges.push(j);\r\n        emit judgeRegistered(judges.length-1);\r\n    }\r\n    \r\n    function newCase(uint _judgeId, uint _lawyer1Id, uint _lawyer2Id, string memory _party_1_name, string memory _party_2_name, string memory _details) public onlyOwner {\r\n        string[] memory empty;\r\n        Case memory tcase = Case(judges[_judgeId].addr, lawyers[_lawyer1Id].addr, lawyers[_lawyer2Id].addr, empty, empty, _party_1_name, _party_2_name, _details, empty);\r\n        cases.push(tcase);\r\n        \r\n        emit caseCreated(cases.length-1);\r\n    }\r\n    \r\n    // Evidence\r\n    function uploadEvidence(uint _caseId, string memory _fileHash, string memory _fileType) onlyOwner public {\r\n        // to compare String without importing StringUtils Contract:\r\n        require(keccak256(bytes(_fileHash)) != keccak256(bytes(\"\")) && keccak256(bytes(_fileType)) != keccak256(bytes(\"\")));    //here checking string Not Null\r\n        cases[_caseId].evidenceFileHash.push(_fileHash);\r\n        cases[_caseId].evidenceFileType.push(_fileType);\r\n    }\r\n    \r\n    function getEvidenceCount(uint _caseId) public view returns(uint) {\r\n        return cases[_caseId].evidenceFileHash.length;\r\n    }\r\n    function getEvidence(uint _caseId, uint _evidenceNo) public view returns(string memory FileHash, string memory FileType) {\r\n        return (cases[_caseId].evidenceFileHash[_evidenceNo], cases[_caseId].evidenceFileType[_evidenceNo]);\r\n    }\r\n    \r\n    //Transcript\r\n    function uploadTranscript(uint _caseId, string memory _transcript) onlyOwner public {\r\n        cases[_caseId].transcripts.push(_transcript);\r\n    }\r\n    function getTranscriptsCount(uint _caseId) public view returns(uint) {\r\n        return cases[_caseId].transcripts.length;\r\n    }\r\n    function getTranscript(uint _caseId, uint _transcriptNo) public view returns(string memory) {\r\n        return cases[_caseId].transcripts[_transcriptNo];\r\n    }\r\n    \r\n    //EncryptedKeys\r\n    function addEncryptedKey(bool _isLawyer, uint _ljId, uint _caseId, string memory _key) public onlyOwner {\r\n        if(_isLawyer) {\r\n            lawyers[_ljId].encryptedKeys[_caseId] = _key;\r\n        } else {\r\n            judges[_ljId].encryptedKeys[_caseId] = _key;\r\n        }\r\n    }\r\n    function getEncryptedKey(bool _isLawyer, uint _ljId, uint _caseId) public view returns(string memory) {\r\n        if(_isLawyer) {\r\n            return lawyers[_ljId].encryptedKeys[_caseId];\r\n        } else {\r\n            return judges[_ljId].encryptedKeys[_caseId];\r\n        }\r\n    }\r\n    \r\n    function getCaseAddresses(uint _caseId) public view returns(address judge, address lawyer1, address lawyer2) {\r\n        return(cases[_caseId].judge, cases[_caseId].lawyer1, cases[_caseId].lawyer2);\r\n    }\r\n    \r\n    constructor() public {\r\n        owner = msg.sender;\r\n    }\r\n}",
  "sourcePath": "D:/LegalLedger/contracts/Court.sol",
  "compiler": {
    "name": "solc",
    "version": "0.5.16+commit.9c3226ce.Emscripten.clang"
  },
  "schemaVersion": "3.3.2",
  "updatedAt": "2021-03-21T14:55:46.918Z",
  "networkType": "ethereum",
  "devdoc": {
    "methods": {}
  },
  "userdoc": {
    "methods": {}
  }
}